10000888888888EJEMPLO EMPRESA     00000000000123420130816A00000004000000000000004000000000033333333367                                                                                                           .
60000099999999PAGADOR UNO         005600078000000222222222226700000000000000100N444444444444                                                0000000000000000000000000000000D5120130816     012009920130816B      .
60000033333333PAGADOR DOS         005600078000000333333333336700000000000000100N111111111111                                                0000000000000000000000000000000D5120130816     012009920130816B      .
60000044444444PAGADOR TRES        005600078000000444444444446700000000000000100N999999999999                                                0000000000000000000000000000000D5520130816     012009920130816B      .
60000022222222PAGADOR CUATRO      005600078000000555555555556700000000000000100N888888888888                                                0000000000000000000000000000000D5520130816     012009920130816B      .
